:100000000C94BF000C94E7000C94E7000C94E700FC
:100010000C94E7000C94E7000C94E7000C94E700C4
:100020000C94E7000C94E7000C94E7000C94E700B4
:100030000C94E7000C94E7000C94E7000C94E700A4
:100040000C946B040C94E7000C94DB040C94B50442
:100050000C94E7000C94E7000C94E7000C94E70084
:100060000C94E7000C94E70008000000BE922449BD
:10007000123EABAAAA2ABECDCCCC4C3E00000080DA
:10008000BEABAAAAAA3E00000000BF000000803F4D
:100090000000000000084178D3BB4387D1133D190D
:1000A0000E3CC3BD4282AD2B3E68EC8276BED98F3A
:1000B000E1A93E4C80EFFFBE01C4FF7F3F0000007E
:1000C000000000000000230026002900486967683E
:1000D00056616C004E6F726D616C00290020757363
:1000E0002C204144433D20002C20743D200020283A
:1000F00000206E460020754600436170616369749C
:10010000616E63652056616C7565203D2000292075
:100110000020704620280043617061636974616E3D
:1001200063652056616C7565203D2000000000006D
:10013000240027002A0000000000250028002B00D2
:10014000040404040404040402020202020203037D
:100150000303030301020408102040800102040885
:100160001020010204081020000000080002010015
:10017000000304070000000000000000F306112443
:100180001FBECFEFD8E0DEBFCDBF11E0A0E0B1E0F1
:10019000E6E1F4E102C005900D92A232B107D9F771
:1001A00021E0A2E2B1E001C01D92A83CB207E1F754
:1001B00010E0CFEBD0E004C02197FE010E94030ABB
:1001C000CE3BD107C9F70E940D050C94090A0C9487
:1001D0000000833081F028F4813099F08230A9F05A
:1001E00008958730A9F08830C9F08430B1F4809147
:1001F00080008F7D03C0809180008F778093800086
:10020000089584B58F7784BD089584B58F7DFBCF25
:100210008091B0008F778093B00008958091B000F6
:100220008F7DF9CF1F93CF93DF93282F30E0F90113
:10023000E859FE4F8491F901EC5AFE4FD491F9012F
:10024000E05CFE4FC491CC23A9F0162F81110E94CF
:10025000E900EC2FF0E0EE0FFF1FEA5CFE4FA591E6
:10026000B4918FB7F894EC91111108C0D095DE23AA
:10027000DC938FBFDF91CF911F910895DE2BF8CFD4
:10028000CF93DF9390E0FC01EC5AFE4F2491805C09
:100290009E4FFC0184918823C9F090E0880F991F3C
:1002A000FC01E45DFE4FA591B491FC01EA5CFE4FB8
:1002B000C591D49161110DC09FB7F8948C91209590
:1002C00082238C938881282328839FBFDF91CF913D
:1002D0000895623051F49FB7F8943C91822F809535
:1002E00083238C93E8812E2BEFCF8FB7F894EC917A
:1002F0002E2B2C938FBFEACF8E50806480937C008E
:1003000080917A00806480937A0080917A0086FDE3
:10031000FCCF809178009091790008953FB7F894D0
:100320008091270190912801A0912901B0912A0183
:1003300026B5A89B05C02F3F19F00196A11DB11D40
:100340003FBFBA2FA92F982F8827BC01CD01620F7C
:10035000711D811D911D42E0660F771F881F991F37
:100360004A95D1F708958F929F92AF92BF92CF9204
:10037000DF92EF92FF926B017C010E948E014B0194
:100380005C01C114D104E104F104B9F00E948E01B2
:10039000681979098A099B09683E734081059105AE
:1003A00080F321E0C21AD108E108F10888EE880E36
:1003B00083E0981EA11CB11CE4CFFF90EF90DF906A
:1003C000CF90BF90AF909F908F900895AF92BF92C3
:1003D000CF92DF92EF92FF920F931F93CF93DF9311
:1003E0006C017B018B01040F151FEB015E01AE1840
:1003F000BF08C017D10759F06991D601ED91FC9162
:100400000190F081E02DC6010995892B79F7C5018E
:10041000DF91CF911F910F91FF90EF90DF90CF90E0
:10042000BF90AF900895FC01538D448D252F30E08F
:10043000842F90E0821B930B541710F0CF960895F1
:1004400001970895FC01918D828D981761F0A28D1E
:10045000AE0FBF2FB11D5D968C91928D9F5F9F73E4
:10046000928F90E008958FEF9FEF0895FC01918D9A
:10047000828D981731F0828DE80FF11D858D90E007
:1004800008958FEF9FEF0895FC01918D228D892FA4
:1004900090E0805C9F4F821B91098F73992708958C
:1004A0008BE291E00E94440221E0892B09F420E0D4
:1004B000822F089580E090E0892B29F00E9450025D
:1004C00081110C9400000895FC01A48DA80FB92F90
:1004D000B11DA35ABF4F2C91848D90E001968F736C
:1004E0009927848FA689B7892C93A089B1898C918B
:1004F000837080648C93938D848D981306C00288DA
:10050000F389E02D80818F7D80830895EF92FF92A3
:100510000F931F93CF93DF93EC0181E0888F9B8D26
:100520008C8D98131AC0E889F989808185FF15C0E0
:100530009FB7F894EE89FF896083E889F989808103
:100540008370806480839FBF81E090E0DF91CF91D2
:100550001F910F91FF90EF900895F62E0B8D10E0F4
:100560000F5F1F4F0F731127E02E8C8D8E110CC063
:100570000FB607FCFACFE889F989808185FFF5CFAE
:10058000CE010E946402F1CFEB8DEC0FFD2FF11D27
:10059000E35AFF4FF0829FB7F8940B8FEA89FB89EB
:1005A00080818062CFCF0F931F93CF93DF938C0115
:1005B000D0E0C0E0F801EC0FFD1F6491662341F02C
:1005C0008BE291E00E948602892B11F02196F2CFF6
:1005D000CE01DF91CF911F910F910895CF93DF93BB
:1005E000EC01888D8823B9F0AA89BB89E889F9894B
:1005F0008C9185FD03C0808186FD0DC00FB607FC80
:10060000F7CF8C9185FFF2CF808185FFEDCFCE01B2
:100610000E946402E9CFDF91CF910895FC0101901F
:100620000020E9F73197AF01481B590BBC018BE261
:1006300091E00C94E6018F929F92AF92BF920F933C
:100640001F93CF93DF93CDB7DEB7A1970FB6F89482
:10065000DEBF0FBECDBF19A2423008F44AE08E01C2
:100660000F5D1F4F842E912CB12CA12CA50194015C
:100670000E94E109E62FB901CA01EA30F4F4E05D15
:10068000D801EE938D01232B242B252B79F790E0B5
:1006900080E0109719F0CD010E940E03A1960FB6CD
:1006A000F894DEBF0FBECDBFDF91CF911F910F91A8
:1006B000BF90AF909F908F900895E95CE1CFCF926B
:1006C000DF92EF92FF92CF93DF936C01990FEE08C8
:1006D000FF08F7FE19C06DE28BE291E00E948602EE
:1006E000EC0166277727CB016C197D098E099F09DC
:1006F0004AE00E941B038C0F9D1FDF91CF91FF905A
:10070000EF90DF90CF9008954AE0C701B601DF91E6
:10071000CF91FF90EF90DF90CF900C941B034F92FE
:100720005F926F927F928F929F92AF92BF92CF9281
:10073000DF92EF92FF920F931F93CF936B017C0197
:10074000742EAC019B010E94A709882399F082E1D5
:1007500091E0CF911F910F91FF90EF90DF90CF909C
:10076000BF90AF909F908F907F906F905F904F90D1
:100770000C940E0346015701E894B7F82FEF3FEFB2
:100780004FE75FE7C501B4010E94A70981110DC0C1
:100790002FEF3FEF4FE75FE7C501B4010E948D07E0
:1007A00018161CF486E191E0D4CF2FEF3FEF4FE70E
:1007B0005FE4C701B6010E94E50818161CF48AE13F
:1007C00091E0C7CF2FEF3FEF4FE75FECC701B601D6
:1007D0000E948D0787FDF3CF20E030E0A901C7011B
:1007E000B6010E948D0710E000E087FF0AC06DE2AD
:1007F0008BE291E00E9486028C01F7FAF094F7F800
:10080000F094C0E060E070E080E09FE37C1641F08F
:1008100020E030E040E251E40E949207CF5FF6CF43
:10082000A70196010E9421072B013C010E940408A8
:100830004B015C014AE00E941B037C01E00EF11EAB
:10084000CC23C1F1C501B4010E9433089B01AC0166
:10085000C301B2010E9420074B015C016EE28BE2F2
:1008600091E00E948602E80EF91EC15018F120E0C6
:1008700030E040E251E4C501B4010E943A092B0185
:100880003C010E9404084B01B12CA12C4AE0C50197
:10089000B4010E941B03E80EF91EC501B4010E94B9
:1008A00033089B01AC01C301B2010E9420074B0138
:1008B0005C01DBCFC701CF911F910F91FF90EF90AB
:1008C000DF90CF90BF90AF909F908F907F906F9070
:1008D0005F904F9008951F920F920FB60F921124C0
:1008E0002F933F938F939F93AF93BF938091230157
:1008F00090912401A0912501B0912601309122010F
:1009000023E0230F2D3758F50196A11DB11D20932B
:1009100022018093230190932401A0932501B09399
:1009200026018091270190912801A0912901B09181
:100930002A010196A11DB11D8093270190932801E2
:10094000A0932901B0932A01BF91AF919F918F91FC
:100950003F912F910F900FBE0F901F90189526E892
:10096000230F0296A11DB11DD2CF1F920F920FB679
:100970000F9211242F933F934F935F936F937F9325
:100980008F939F93AF93BF93EF93FF938BE291E08D
:100990000E946402FF91EF91BF91AF919F918F915F
:1009A0007F916F915F914F913F912F910F900FBE6B
:1009B0000F901F9018951F920F920FB60F9211244F
:1009C0002F938F939F93EF93FF93E0913B01F091CF
:1009D0003C018081E0914101F091420182FD1BC008
:1009E0009081809144018F5F8F7320914501821720
:1009F00041F0E0914401F0E0E55DFE4F958F80937A
:100A00004401FF91EF919F918F912F910F900FBE15
:100A10000F901F9018958081F4CF789484B58260F0
:100A200084BD84B5816084BD85B5826085BD85B592
:100A3000816085BD80916E00816080936E00109210
:100A4000810080918100826080938100809181008B
:100A5000816080938100809180008160809380001C
:100A60008091B10084608093B1008091B00081607A
:100A70008093B00080917A00846080937A008091A6
:100A80007A00826080937A0080917A0081608093FE
:100A90007A0080917A00806880937A001092C10079
:100AA00061E080E10E94400161E08EE00E9440012F
:100AB000E0913B01F0913C0182E08083E0913701BD
:100AC000F09138011082E0913901F0913A018FECF8
:100AD000808310924301E0913F01F091400186E054
:100AE0008083E0913D01F0913E01808180618083AF
:100AF000E0913D01F0913E01808188608083E0912A
:100B00003D01F0913E01808180688083E0913D014C
:100B1000F0913E0180818F7D808328EE422E23E07C
:100B2000522E612C712C90E0292E90E0392E60E03D
:100B30008EE00E94400161E080E10E9412018EE09F
:100B40000E947C01EC0160E080E10E94120161E002
:100B5000C83E83E0D8070CF05BC08EE00E944001E5
:100B6000BE010D2E000C880B990B0E9435082AE05F
:100B700037ED43EC51E40E943A096B017C016FEFC1
:100B800073E06C1B7D0B072E000C880B990B0E94E9
:100B900035089B01AC01C701B6010E9492076B01A9
:100BA0007C0187E191E00E94D30243E0C701B601D6
:100BB0000E948F0381E191E00E94D302CE010E9446
:100BC0005F038EE091E00E94D3028EE191E00E94EB
:100BD0000E032FB7F8946091230170912401809146
:100BE0002501909126012FBFA30192010E94E109E6
:100BF000672B682B692B69F72114310409F497CF0F
:100C00000E945002882309F48ECF0E9400008BCFEF
:100C10008EE00E94400161E070E080E090E00E9480
:100C2000B30162E080E10E9440010E948E014B010D
:100C30005C01E8E7F1E08491E4E6F1E0C491E0E5ED
:100C4000F1E0D49110E000E0DD2399F081110E94E1
:100C5000E900ED2FF0E0EE0FFF1FEE53FF4FA591DF
:100C6000B4918C91C82391E080E009F490E0092FC1
:100C7000182F0E948E0186169706A806B90608F05E
:100C8000A3C06B017C01C818D908EA08FB08013031
:100C9000110549F0F0E8CF16FAE1DF06F6E0EF06BD
:100CA000F10408F4C6CF60E080E10E94400180E1D9
:100CB0000E947C01EC0161E08EE00E941201C701FC
:100CC000B601A30192010E94E10985E0829FB00173
:100CD000839F700D1124072E000C880B990B0E9426
:100CE000B30161E080E10E94400160E080E10E9488
:100CF000120160E08EE00E941201BE010D2E000C78
:100D0000880B990B0E94350820E030EC4FE754E443
:100D10000E9492079B01AC0160E070E080E89FE3D5
:100D20000E9420070E94F2084B015C01C701B60136
:100D30000E943308905823E333E34BE052E40E94CF
:100D40009207A50194010E9492074B015C0189EF73
:100D500090E00E94D30220E030E04AE754E4C5016D
:100D6000B4010E94E5081816B4F520E030E04AE727
:100D700054E4C501B4010E94920742E00E948F032F
:100D800085EF90E00E94D3028EEE90E00E94D302A5
:100D90008CEC90E00130110511F484ED90E00E949C
:100DA000D30288EE90E00E94D3024AE0C701B60168
:100DB0000E941B038DED90E00E94D302CE010E94A1
:100DC0005F038BED90E0FFCE75016401C61AD70A70
:100DD000E80AF90A5CCF42E0C501B4010E948F0322
:100DE00081EF90E0CFCFEBE2F1E01382128288EE48
:100DF00093E0A0E0B0E084839583A683B78384E08A
:100E000091E09183808385EC90E09587848784ECE2
:100E100090E09787868780EC90E0918B808B81ECC7
:100E200090E0938B828B82EC90E0958B848B86ECA8
:100E300090E0978B868B118E128E138E148E0895F0
:100E40005058BB27AA270E9438070C94AB080E9471
:100E50009D0838F00E94A40820F039F49F3F19F44F
:100E600026F40C949A080EF4E095E7FB0C94940891
:100E7000E92F0E94BC0858F3BA176207730784076A
:100E8000950720F079F4A6F50C94DE080EF4E095B1
:100E90000B2EBA2FA02D0B01B90190010C01CA0134
:100EA000A0011124FF27591B99F0593F50F4503EDF
:100EB00068F11A16F040A22F232F342F4427585FD1
:100EC000F3CF469537952795A795F0405395C9F7E9
:100ED0007EF41F16BA0B620B730B840BBAF09150A1
:100EE000A1F0FF0FBB1F661F771F881FC2F70EC040
:100EF000BA0F621F731F841F48F487957795679513
:100F0000B795F7959E3F08F0B0CF9395880F08F0FE
:100F10009927EE0F9795879508950E94700808F419
:100F200081E008950E94A6070C94AB080E94A408D3
:100F300058F00E949D0840F029F45F3F29F00C947E
:100F4000940851110C94DF080C949A080E94BC0874
:100F500068F39923B1F3552391F3951B550BBB27E8
:100F6000AA2762177307840738F09F5F5F4F220F2D
:100F7000331F441FAA1FA9F335D00E2E3AF0E0E824
:100F800032D091505040E695001CCAF72BD0FE2F6E
:100F900029D0660F771F881FBB1F26173707480702
:100FA000AB07B0E809F0BB0B802DBF01FF279358BA
:100FB0005F4F3AF09E3F510578F00C9494080C94E2
:100FC000DF085F3FE4F3983ED4F386957795679505
:100FD000B795F7959F5FC9F7880F911D96958795EF
:100FE00097F90895E1E0660F771F881FBB1F62170E
:100FF00073078407BA0720F0621B730B840BBA0BCC
:10100000EE1F88F7E09508950E94C40888F09F5766
:1010100098F0B92F9927B751B0F0E1F0660F771F1C
:10102000881F991F1AF0BA95C9F714C0B13091F012
:101030000E94DE08B1E008950C94DE08672F782F37
:101040008827B85F39F0B93FCCF3869577956795D7
:10105000B395D9F73EF490958095709561957F4F43
:101060008F4F9F4F0895E89409C097FB3EF49095E9
:101070008095709561957F4F8F4F9F4F9923A9F071
:10108000F92F96E9BB279395F69587957795679500
:10109000B795F111F8CFFAF4BB0F11F460FF1BC044
:1010A0006F5F7F4F8F4F9F4F16C0882311F096E9D7
:1010B00011C0772321F09EE8872F762F05C0662385
:1010C00071F096E8862F70E060E02AF09A95660F3E
:1010D000771F881FDAF7880F9695879597F90895F7
:1010E000990F0008550FAA0BE0E8FEEF1616170639
:1010F000E807F907C0F012161306E407F50798F0A1
:10110000621B730B840B950B39F40A2661F0232BB9
:10111000242B252B21F408950A2609F4A140A69535
:101120008FEF811D811D089597F99F6780E870E01A
:1011300060E008959FEF80EC089500240A9416164D
:10114000170618060906089500240A9412161306B5
:10115000140605060895092E0394000C11F4882343
:1011600052F0BB0F40F4BF2B11F460FF04C06F5F5F
:101170007F4F8F4F9F4F089557FD9058440F551F35
:1011800059F05F3F71F04795880F97FB991F61F009
:101190009F3F79F087950895121613061406551F80
:1011A000F2CF4695F1DF08C0161617061806991FEC
:1011B000F1CF86957105610508940895E894BB27E1
:1011C00066277727CB0197F908950E94700808F4E5
:1011D0008FEF089516F00C94AC090C949A0868945B
:1011E0000C9494080E94C408A8F39923C1F3AEF3A9
:1011F000DF93CF931F930F93FF92C92FDD2788238F
:101200002AF02197660F771F881FDAF720E030E079
:1012100040E85FEB9FE3883920F0803E38F021966C
:101220008F770E942107E8E6F0E004C00E942107C2
:10123000E5E9F0E00E94BA098B01BE01EC01FB2E4A
:101240006F5771097595771F880B990B0E943508A8
:1012500028E132E741E35FE30E944D09AF2D980199
:10126000AE01FF900F911F91CF91DF910E9438073F
:101270000C94AB080E944D090C94AB080E949D0889
:1012800038F00E94A40820F0952311F00C949408E3
:101290000C949A0811240C94DF080E94BC0870F387
:1012A000959FC1F3950F50E0551F629FF001729F0B
:1012B000BB27F00DB11D639FAA27F00DB11DAA1F1A
:1012C000649F6627B00DA11D661F829F2227B00D67
:1012D000A11D621F739FB00DA11D621F839FA00DF2
:1012E000611D221F749F3327A00D611D231F849F42
:1012F000600D211D822F762F6A2F11249F57504099
:101300009AF0F1F088234AF0EE0FFF1FBB1F661F13
:10131000771F881F91505040A9F79E3F510580F0DC
:101320000C9494080C94DF085F3FE4F3983ED4F3E8
:10133000869577956795B795F795E7959F5FC1F780
:10134000FE2B880F911D9695879597F908950E9419
:101350007008880B990B08959F3F31F0915020F44D
:10136000879577956795B795880F911D9695879581
:1013700097F90895DF93CF931F930F93FF92EF9206
:10138000DF927B018C01689406C0DA2EEF010E9487
:101390004D09FE01E894A59125913591459155910E
:1013A000A6F3EF010E943807FE019701A801DA9425
:1013B00069F7DF90EF90FF900F911F91CF91DF9130
:1013C0000895A1E21A2EAA1BBB1BFD010DC0AA1F86
:1013D000BB1FEE1FFF1FA217B307E407F50720F09E
:1013E000A21BB30BE40BF50B661F771F881F991F19
:1013F0001A9469F760957095809590959B01AC0162
:10140000BD01CF010895EE0FFF1F0590F491E02D6F
:061410000994F894FFCFDF
:10141600000000008602E6011302EE0244022202E8
:1014260036026E616E00696E66006F7666000D0AA2
:021436000000B4
:00000001FF
